{
  "contractName": "Rho",
  "abi": [
    {
      "constant": true,
      "inputs": [
        {
          "name": "x0",
          "type": "uint256"
        },
        {
          "name": "p",
          "type": "uint256"
        },
        {
          "name": "n",
          "type": "uint256"
        }
      ],
      "name": "run",
      "outputs": [
        {
          "name": "",
          "type": "uint256"
        }
      ],
      "payable": false,
      "stateMutability": "pure",
      "type": "function"
    },
    {
      "constant": true,
      "inputs": [
        {
          "name": "a",
          "type": "uint256"
        },
        {
          "name": "b",
          "type": "uint256"
        }
      ],
      "name": "gcd",
      "outputs": [
        {
          "name": "",
          "type": "uint256"
        }
      ],
      "payable": false,
      "stateMutability": "pure",
      "type": "function"
    }
  ],
  "bytecode": "0x6060604052341561000f57600080fd5b6101a38061001e6000396000f30060606040526004361061004c576000357c0100000000000000000000000000000000000000000000000000000000900463ffffffff16806324b912e514610051578063b9650dac1461009a575b600080fd5b341561005c57600080fd5b61008460048080359060200190919080359060200190919080359060200190919050506100da565b6040518082815260200191505060405180910390f35b34156100a557600080fd5b6100c46004808035906020019091908035906020019091905050610145565b6040518082815260200191505060405180910390f35b600080600080869250869150600190505b600181141561013857858384020192508582830201915085828302019150818311156101245761011d82840386610145565b9050610133565b61013083830386610145565b90505b6100eb565b8093505050509392505050565b60005b600082111561016e57818381151561015c57fe5b06925081838093508194505050610148565b829050929150505600a165627a7a7230582011544764bab6d4ee670d5baf97f045b5f054df71b65c703e429be006bb083e2a0029",
  "source": "pragma solidity ^0.4.15;\n\ncontract Rho {\n  function run(uint256 x0, uint256 p, uint256 n) public pure returns(uint256) {\n    uint256 a = x0;\n    uint256 b = x0;\n    uint256 g = 1;\n    while (g == 1) {\n      a = a*a + p;\n      b = b*b + p;\n      b = b*b + p;\n      if (a > b) {\n        g = gcd(a - b, n);\n      } else {\n        g = gcd(b - a, n);\n      }\n    }\n    return g;\n  }\n\n  function gcd(uint256 a, uint256 b) public pure returns(uint256) {\n    while (b > 0) {\n      a %= b;\n      (a, b) = (b, a);\n    }\n    return a;\n  }\n}\n",
  "sourcePath": "/home/lionell/dev/go/src/github.com/lionell/pollard/ethereum/contracts/Rho.sol",
  "compiler": {
    "name": "solc",
    "version": "0.4.18+commit.9cf6e910.Emscripten.clang"
  },
  "schemaVersion": "1.0.1",
  "updatedAt": "2017-12-10T15:15:01.189Z"
}